{
  "_format": "hh-sol-artifact-1",
  "contractName": "BasicToken",
  "sourceName": "contracts/BasicToken.sol",
  "abi": [
    {
      "inputs": [
        {
          "internalType": "uint256",
          "name": "initialSupply",
          "type": "uint256"
        }
      ],
      "stateMutability": "nonpayable",
      "type": "constructor"
    },
    {
      "anonymous": false,
      "inputs": [
        {
          "indexed": true,
          "internalType": "address",
          "name": "owner",
          "type": "address"
        },
        {
          "indexed": true,
          "internalType": "address",
          "name": "spender",
          "type": "address"
        },
        {
          "indexed": false,
          "internalType": "uint256",
          "name": "value",
          "type": "uint256"
        }
      ],
      "name": "Approval",
      "type": "event"
    },
    {
      "anonymous": false,
      "inputs": [
        {
          "indexed": true,
          "internalType": "address",
          "name": "previousOwner",
          "type": "address"
        },
        {
          "indexed": true,
          "internalType": "address",
          "name": "newOwner",
          "type": "address"
        }
      ],
      "name": "OwnershipTransferred",
      "type": "event"
    },
    {
      "anonymous": false,
      "inputs": [
        {
          "indexed": false,
          "internalType": "address",
          "name": "account",
          "type": "address"
        }
      ],
      "name": "Paused",
      "type": "event"
    },
    {
      "anonymous": false,
      "inputs": [
        {
          "indexed": true,
          "internalType": "address",
          "name": "from",
          "type": "address"
        },
        {
          "indexed": true,
          "internalType": "address",
          "name": "to",
          "type": "address"
        },
        {
          "indexed": false,
          "internalType": "uint256",
          "name": "value",
          "type": "uint256"
        }
      ],
      "name": "Transfer",
      "type": "event"
    },
    {
      "anonymous": false,
      "inputs": [
        {
          "indexed": false,
          "internalType": "address",
          "name": "account",
          "type": "address"
        }
      ],
      "name": "Unpaused",
      "type": "event"
    },
    {
      "inputs": [
        {
          "internalType": "address",
          "name": "owner",
          "type": "address"
        },
        {
          "internalType": "address",
          "name": "spender",
          "type": "address"
        }
      ],
      "name": "allowance",
      "outputs": [
        {
          "internalType": "uint256",
          "name": "",
          "type": "uint256"
        }
      ],
      "stateMutability": "view",
      "type": "function"
    },
    {
      "inputs": [
        {
          "internalType": "address",
          "name": "spender",
          "type": "address"
        },
        {
          "internalType": "uint256",
          "name": "amount",
          "type": "uint256"
        }
      ],
      "name": "approve",
      "outputs": [
        {
          "internalType": "bool",
          "name": "",
          "type": "bool"
        }
      ],
      "stateMutability": "nonpayable",
      "type": "function"
    },
    {
      "inputs": [
        {
          "internalType": "address",
          "name": "account",
          "type": "address"
        }
      ],
      "name": "balanceOf",
      "outputs": [
        {
          "internalType": "uint256",
          "name": "",
          "type": "uint256"
        }
      ],
      "stateMutability": "view",
      "type": "function"
    },
    {
      "inputs": [
        {
          "internalType": "uint256",
          "name": "amount",
          "type": "uint256"
        }
      ],
      "name": "burn",
      "outputs": [],
      "stateMutability": "nonpayable",
      "type": "function"
    },
    {
      "inputs": [
        {
          "internalType": "address",
          "name": "account",
          "type": "address"
        },
        {
          "internalType": "uint256",
          "name": "amount",
          "type": "uint256"
        }
      ],
      "name": "burnFrom",
      "outputs": [],
      "stateMutability": "nonpayable",
      "type": "function"
    },
    {
      "inputs": [],
      "name": "decimals",
      "outputs": [
        {
          "internalType": "uint8",
          "name": "",
          "type": "uint8"
        }
      ],
      "stateMutability": "view",
      "type": "function"
    },
    {
      "inputs": [
        {
          "internalType": "address",
          "name": "spender",
          "type": "address"
        },
        {
          "internalType": "uint256",
          "name": "subtractedValue",
          "type": "uint256"
        }
      ],
      "name": "decreaseAllowance",
      "outputs": [
        {
          "internalType": "bool",
          "name": "",
          "type": "bool"
        }
      ],
      "stateMutability": "nonpayable",
      "type": "function"
    },
    {
      "inputs": [
        {
          "internalType": "address",
          "name": "spender",
          "type": "address"
        },
        {
          "internalType": "uint256",
          "name": "addedValue",
          "type": "uint256"
        }
      ],
      "name": "increaseAllowance",
      "outputs": [
        {
          "internalType": "bool",
          "name": "",
          "type": "bool"
        }
      ],
      "stateMutability": "nonpayable",
      "type": "function"
    },
    {
      "inputs": [],
      "name": "name",
      "outputs": [
        {
          "internalType": "string",
          "name": "",
          "type": "string"
        }
      ],
      "stateMutability": "view",
      "type": "function"
    },
    {
      "inputs": [],
      "name": "owner",
      "outputs": [
        {
          "internalType": "address",
          "name": "",
          "type": "address"
        }
      ],
      "stateMutability": "view",
      "type": "function"
    },
    {
      "inputs": [],
      "name": "pause",
      "outputs": [],
      "stateMutability": "nonpayable",
      "type": "function"
    },
    {
      "inputs": [],
      "name": "paused",
      "outputs": [
        {
          "internalType": "bool",
          "name": "",
          "type": "bool"
        }
      ],
      "stateMutability": "view",
      "type": "function"
    },
    {
      "inputs": [],
      "name": "renounceOwnership",
      "outputs": [],
      "stateMutability": "nonpayable",
      "type": "function"
    },
    {
      "inputs": [],
      "name": "symbol",
      "outputs": [
        {
          "internalType": "string",
          "name": "",
          "type": "string"
        }
      ],
      "stateMutability": "view",
      "type": "function"
    },
    {
      "inputs": [],
      "name": "totalSupply",
      "outputs": [
        {
          "internalType": "uint256",
          "name": "",
          "type": "uint256"
        }
      ],
      "stateMutability": "view",
      "type": "function"
    },
    {
      "inputs": [
        {
          "internalType": "address",
          "name": "to",
          "type": "address"
        },
        {
          "internalType": "uint256",
          "name": "amount",
          "type": "uint256"
        }
      ],
      "name": "transfer",
      "outputs": [
        {
          "internalType": "bool",
          "name": "",
          "type": "bool"
        }
      ],
      "stateMutability": "nonpayable",
      "type": "function"
    },
    {
      "inputs": [
        {
          "internalType": "address",
          "name": "from",
          "type": "address"
        },
        {
          "internalType": "address",
          "name": "to",
          "type": "address"
        },
        {
          "internalType": "uint256",
          "name": "amount",
          "type": "uint256"
        }
      ],
      "name": "transferFrom",
      "outputs": [
        {
          "internalType": "bool",
          "name": "",
          "type": "bool"
        }
      ],
      "stateMutability": "nonpayable",
      "type": "function"
    },
    {
      "inputs": [
        {
          "internalType": "address",
          "name": "newOwner",
          "type": "address"
        }
      ],
      "name": "transferOwnership",
      "outputs": [],
      "stateMutability": "nonpayable",
      "type": "function"
    },
    {
      "inputs": [],
      "name": "unpause",
      "outputs": [],
      "stateMutability": "nonpayable",
      "type": "function"
    }
  ],
  "bytecode": "0x60806040523480156200001157600080fd5b50604051620025b9380380620025b983398181016040528101906200003791906200043b565b6040518060400160405280600b81526020017f426173696320546f6b656e0000000000000000000000000000000000000000008152506040518060400160405280600281526020017f42540000000000000000000000000000000000000000000000000000000000008152508160039081620000b49190620006dd565b508060049081620000c69190620006dd565b5050506000600560006101000a81548160ff02191690831515021790555062000104620000f86200011d60201b60201c565b6200012560201b60201c565b620001163382620001eb60201b60201c565b5062000951565b600033905090565b6000600560019054906101000a900473ffffffffffffffffffffffffffffffffffffffff16905081600560016101000a81548173ffffffffffffffffffffffffffffffffffffffff021916908373ffffffffffffffffffffffffffffffffffffffff1602179055508173ffffffffffffffffffffffffffffffffffffffff168173ffffffffffffffffffffffffffffffffffffffff167f8be0079c531659141344cd1fd0a4f28419497f9722a3daafe3b4186f6b6457e060405160405180910390a35050565b600073ffffffffffffffffffffffffffffffffffffffff168273ffffffffffffffffffffffffffffffffffffffff16036200025d576040517f08c379a0000000000000000000000000000000000000000000000000000000008152600401620002549062000825565b60405180910390fd5b62000271600083836200035860201b60201c565b806002600082825462000285919062000876565b92505081905550806000808473ffffffffffffffffffffffffffffffffffffffff1673ffffffffffffffffffffffffffffffffffffffff168152602001908152602001600020600082825401925050819055508173ffffffffffffffffffffffffffffffffffffffff16600073ffffffffffffffffffffffffffffffffffffffff167fddf252ad1be2c89b69c2b068fc378daa952ba7f163c4a11628f55a4df523b3ef83604051620003389190620008c2565b60405180910390a362000354600083836200038560201b60201c565b5050565b620003686200038a60201b60201c565b62000380838383620003df60201b620007f51760201c565b505050565b505050565b6200039a620003e460201b60201c565b15620003dd576040517f08c379a0000000000000000000000000000000000000000000000000000000008152600401620003d4906200092f565b60405180910390fd5b565b505050565b6000600560009054906101000a900460ff16905090565b600080fd5b6000819050919050565b620004158162000400565b81146200042157600080fd5b50565b60008151905062000435816200040a565b92915050565b600060208284031215620004545762000453620003fb565b5b6000620004648482850162000424565b91505092915050565b600081519050919050565b7f4e487b7100000000000000000000000000000000000000000000000000000000600052604160045260246000fd5b7f4e487b7100000000000000000000000000000000000000000000000000000000600052602260045260246000fd5b60006002820490506001821680620004ef57607f821691505b602082108103620005055762000504620004a7565b5b50919050565b60008190508160005260206000209050919050565b60006020601f8301049050919050565b600082821b905092915050565b6000600883026200056f7fffffffffffffffffffffffffffffffffffffffffffffffffffffffffffffffff8262000530565b6200057b868362000530565b95508019841693508086168417925050509392505050565b6000819050919050565b6000620005be620005b8620005b28462000400565b62000593565b62000400565b9050919050565b6000819050919050565b620005da836200059d565b620005f2620005e982620005c5565b8484546200053d565b825550505050565b600090565b62000609620005fa565b62000616818484620005cf565b505050565b5b818110156200063e5762000632600082620005ff565b6001810190506200061c565b5050565b601f8211156200068d5762000657816200050b565b620006628462000520565b8101602085101562000672578190505b6200068a620006818562000520565b8301826200061b565b50505b505050565b600082821c905092915050565b6000620006b26000198460080262000692565b1980831691505092915050565b6000620006cd83836200069f565b9150826002028217905092915050565b620006e8826200046d565b67ffffffffffffffff81111562000704576200070362000478565b5b620007108254620004d6565b6200071d82828562000642565b600060209050601f83116001811462000755576000841562000740578287015190505b6200074c8582620006bf565b865550620007bc565b601f19841662000765866200050b565b60005b828110156200078f5784890151825560018201915060208501945060208101905062000768565b86831015620007af5784890151620007ab601f8916826200069f565b8355505b6001600288020188555050505b505050505050565b600082825260208201905092915050565b7f45524332303a206d696e7420746f20746865207a65726f206164647265737300600082015250565b60006200080d601f83620007c4565b91506200081a82620007d5565b602082019050919050565b600060208201905081810360008301526200084081620007fe565b9050919050565b7f4e487b7100000000000000000000000000000000000000000000000000000000600052601160045260246000fd5b6000620008838262000400565b9150620008908362000400565b9250828201905080821115620008ab57620008aa62000847565b5b92915050565b620008bc8162000400565b82525050565b6000602082019050620008d96000830184620008b1565b92915050565b7f5061757361626c653a2070617573656400000000000000000000000000000000600082015250565b600062000917601083620007c4565b91506200092482620008df565b602082019050919050565b600060208201905081810360008301526200094a8162000908565b9050919050565b611c5880620009616000396000f3fe608060405234801561001057600080fd5b50600436106101215760003560e01c806370a08231116100ad57806395d89b411161007157806395d89b41146102d2578063a457c2d7146102f0578063a9059cbb14610320578063dd62ed3e14610350578063f2fde38b1461038057610121565b806370a0823114610254578063715018a61461028457806379cc67901461028e5780638456cb59146102aa5780638da5cb5b146102b457610121565b8063313ce567116100f4578063313ce567146101c257806339509351146101e05780633f4ba83a1461021057806342966c681461021a5780635c975abb1461023657610121565b806306fdde0314610126578063095ea7b31461014457806318160ddd1461017457806323b872dd14610192575b600080fd5b61012e61039c565b60405161013b91906111e4565b60405180910390f35b61015e6004803603810190610159919061129f565b61042e565b60405161016b91906112fa565b60405180910390f35b61017c610451565b6040516101899190611324565b60405180910390f35b6101ac60048036038101906101a7919061133f565b61045b565b6040516101b991906112fa565b60405180910390f35b6101ca61048a565b6040516101d791906113ae565b60405180910390f35b6101fa60048036038101906101f5919061129f565b610493565b60405161020791906112fa565b60405180910390f35b6102186104ca565b005b610234600480360381019061022f91906113c9565b6104dc565b005b61023e6104f0565b60405161024b91906112fa565b60405180910390f35b61026e600480360381019061026991906113f6565b610507565b60405161027b9190611324565b60405180910390f35b61028c61054f565b005b6102a860048036038101906102a3919061129f565b610563565b005b6102b2610583565b005b6102bc610595565b6040516102c99190611432565b60405180910390f35b6102da6105bf565b6040516102e791906111e4565b60405180910390f35b61030a6004803603810190610305919061129f565b610651565b60405161031791906112fa565b60405180910390f35b61033a6004803603810190610335919061129f565b6106c8565b60405161034791906112fa565b60405180910390f35b61036a6004803603810190610365919061144d565b6106eb565b6040516103779190611324565b60405180910390f35b61039a600480360381019061039591906113f6565b610772565b005b6060600380546103ab906114bc565b80601f01602080910402602001604051908101604052809291908181526020018280546103d7906114bc565b80156104245780601f106103f957610100808354040283529160200191610424565b820191906000526020600020905b81548152906001019060200180831161040757829003601f168201915b5050505050905090565b6000806104396107fa565b9050610446818585610802565b600191505092915050565b6000600254905090565b6000806104666107fa565b90506104738582856109cb565b61047e858585610a57565b60019150509392505050565b60006012905090565b60008061049e6107fa565b90506104bf8185856104b085896106eb565b6104ba919061151c565b610802565b600191505092915050565b6104d2610ccd565b6104da610d4b565b565b6104ed6104e76107fa565b82610dae565b50565b6000600560009054906101000a900460ff16905090565b60008060008373ffffffffffffffffffffffffffffffffffffffff1673ffffffffffffffffffffffffffffffffffffffff168152602001908152602001600020549050919050565b610557610ccd565b6105616000610f7b565b565b6105758261056f6107fa565b836109cb565b61057f8282610dae565b5050565b61058b610ccd565b610593611041565b565b6000600560019054906101000a900473ffffffffffffffffffffffffffffffffffffffff16905090565b6060600480546105ce906114bc565b80601f01602080910402602001604051908101604052809291908181526020018280546105fa906114bc565b80156106475780601f1061061c57610100808354040283529160200191610647565b820191906000526020600020905b81548152906001019060200180831161062a57829003601f168201915b5050505050905090565b60008061065c6107fa565b9050600061066a82866106eb565b9050838110156106af576040517f08c379a00000000000000000000000000000000000000000000000000000000081526004016106a6906115c2565b60405180910390fd5b6106bc8286868403610802565b60019250505092915050565b6000806106d36107fa565b90506106e0818585610a57565b600191505092915050565b6000600160008473ffffffffffffffffffffffffffffffffffffffff1673ffffffffffffffffffffffffffffffffffffffff16815260200190815260200160002060008373ffffffffffffffffffffffffffffffffffffffff1673ffffffffffffffffffffffffffffffffffffffff16815260200190815260200160002054905092915050565b61077a610ccd565b600073ffffffffffffffffffffffffffffffffffffffff168173ffffffffffffffffffffffffffffffffffffffff16036107e9576040517f08c379a00000000000000000000000000000000000000000000000000000000081526004016107e090611654565b60405180910390fd5b6107f281610f7b565b50565b505050565b600033905090565b600073ffffffffffffffffffffffffffffffffffffffff168373ffffffffffffffffffffffffffffffffffffffff1603610871576040517f08c379a0000000000000000000000000000000000000000000000000000000008152600401610868906116e6565b60405180910390fd5b600073ffffffffffffffffffffffffffffffffffffffff168273ffffffffffffffffffffffffffffffffffffffff16036108e0576040517f08c379a00000000000000000000000000000000000000000000000000000000081526004016108d790611778565b60405180910390fd5b80600160008573ffffffffffffffffffffffffffffffffffffffff1673ffffffffffffffffffffffffffffffffffffffff16815260200190815260200160002060008473ffffffffffffffffffffffffffffffffffffffff1673ffffffffffffffffffffffffffffffffffffffff168152602001908152602001600020819055508173ffffffffffffffffffffffffffffffffffffffff168373ffffffffffffffffffffffffffffffffffffffff167f8c5be1e5ebec7d5bd14f71427d1e84f3dd0314c0f7b2291e5b200ac8c7c3b925836040516109be9190611324565b60405180910390a3505050565b60006109d784846106eb565b90507fffffffffffffffffffffffffffffffffffffffffffffffffffffffffffffffff8114610a515781811015610a43576040517f08c379a0000000000000000000000000000000000000000000000000000000008152600401610a3a906117e4565b60405180910390fd5b610a508484848403610802565b5b50505050565b600073ffffffffffffffffffffffffffffffffffffffff168373ffffffffffffffffffffffffffffffffffffffff1603610ac6576040517f08c379a0000000000000000000000000000000000000000000000000000000008152600401610abd90611876565b60405180910390fd5b600073ffffffffffffffffffffffffffffffffffffffff168273ffffffffffffffffffffffffffffffffffffffff1603610b35576040517f08c379a0000000000000000000000000000000000000000000000000000000008152600401610b2c90611908565b60405180910390fd5b610b408383836110a4565b60008060008573ffffffffffffffffffffffffffffffffffffffff1673ffffffffffffffffffffffffffffffffffffffff16815260200190815260200160002054905081811015610bc6576040517f08c379a0000000000000000000000000000000000000000000000000000000008152600401610bbd9061199a565b60405180910390fd5b8181036000808673ffffffffffffffffffffffffffffffffffffffff1673ffffffffffffffffffffffffffffffffffffffff16815260200190815260200160002081905550816000808573ffffffffffffffffffffffffffffffffffffffff1673ffffffffffffffffffffffffffffffffffffffff168152602001908152602001600020600082825401925050819055508273ffffffffffffffffffffffffffffffffffffffff168473ffffffffffffffffffffffffffffffffffffffff167fddf252ad1be2c89b69c2b068fc378daa952ba7f163c4a11628f55a4df523b3ef84604051610cb49190611324565b60405180910390a3610cc78484846110bc565b50505050565b610cd56107fa565b73ffffffffffffffffffffffffffffffffffffffff16610cf3610595565b73ffffffffffffffffffffffffffffffffffffffff1614610d49576040517f08c379a0000000000000000000000000000000000000000000000000000000008152600401610d4090611a06565b60405180910390fd5b565b610d536110c1565b6000600560006101000a81548160ff0219169083151502179055507f5db9ee0a495bf2e6ff9c91a7834c1ba4fdd244a5e8aa4e537bd38aeae4b073aa610d976107fa565b604051610da49190611432565b60405180910390a1565b600073ffffffffffffffffffffffffffffffffffffffff168273ffffffffffffffffffffffffffffffffffffffff1603610e1d576040517f08c379a0000000000000000000000000000000000000000000000000000000008152600401610e1490611a98565b60405180910390fd5b610e29826000836110a4565b60008060008473ffffffffffffffffffffffffffffffffffffffff1673ffffffffffffffffffffffffffffffffffffffff16815260200190815260200160002054905081811015610eaf576040517f08c379a0000000000000000000000000000000000000000000000000000000008152600401610ea690611b2a565b60405180910390fd5b8181036000808573ffffffffffffffffffffffffffffffffffffffff1673ffffffffffffffffffffffffffffffffffffffff1681526020019081526020016000208190555081600260008282540392505081905550600073ffffffffffffffffffffffffffffffffffffffff168373ffffffffffffffffffffffffffffffffffffffff167fddf252ad1be2c89b69c2b068fc378daa952ba7f163c4a11628f55a4df523b3ef84604051610f629190611324565b60405180910390a3610f76836000846110bc565b505050565b6000600560019054906101000a900473ffffffffffffffffffffffffffffffffffffffff16905081600560016101000a81548173ffffffffffffffffffffffffffffffffffffffff021916908373ffffffffffffffffffffffffffffffffffffffff1602179055508173ffffffffffffffffffffffffffffffffffffffff168173ffffffffffffffffffffffffffffffffffffffff167f8be0079c531659141344cd1fd0a4f28419497f9722a3daafe3b4186f6b6457e060405160405180910390a35050565b61104961110a565b6001600560006101000a81548160ff0219169083151502179055507f62e78cea01bee320cd4e420270b5ea74000d11b0c9f74754ebdbfc544b05a25861108d6107fa565b60405161109a9190611432565b60405180910390a1565b6110ac61110a565b6110b78383836107f5565b505050565b505050565b6110c96104f0565b611108576040517f08c379a00000000000000000000000000000000000000000000000000000000081526004016110ff90611b96565b60405180910390fd5b565b6111126104f0565b15611152576040517f08c379a000000000000000000000000000000000000000000000000000000000815260040161114990611c02565b60405180910390fd5b565b600081519050919050565b600082825260208201905092915050565b60005b8381101561118e578082015181840152602081019050611173565b60008484015250505050565b6000601f19601f8301169050919050565b60006111b682611154565b6111c0818561115f565b93506111d0818560208601611170565b6111d98161119a565b840191505092915050565b600060208201905081810360008301526111fe81846111ab565b905092915050565b600080fd5b600073ffffffffffffffffffffffffffffffffffffffff82169050919050565b60006112368261120b565b9050919050565b6112468161122b565b811461125157600080fd5b50565b6000813590506112638161123d565b92915050565b6000819050919050565b61127c81611269565b811461128757600080fd5b50565b60008135905061129981611273565b92915050565b600080604083850312156112b6576112b5611206565b5b60006112c485828601611254565b92505060206112d58582860161128a565b9150509250929050565b60008115159050919050565b6112f4816112df565b82525050565b600060208201905061130f60008301846112eb565b92915050565b61131e81611269565b82525050565b60006020820190506113396000830184611315565b92915050565b60008060006060848603121561135857611357611206565b5b600061136686828701611254565b935050602061137786828701611254565b92505060406113888682870161128a565b9150509250925092565b600060ff82169050919050565b6113a881611392565b82525050565b60006020820190506113c3600083018461139f565b92915050565b6000602082840312156113df576113de611206565b5b60006113ed8482850161128a565b91505092915050565b60006020828403121561140c5761140b611206565b5b600061141a84828501611254565b91505092915050565b61142c8161122b565b82525050565b60006020820190506114476000830184611423565b92915050565b6000806040838503121561146457611463611206565b5b600061147285828601611254565b925050602061148385828601611254565b9150509250929050565b7f4e487b7100000000000000000000000000000000000000000000000000000000600052602260045260246000fd5b600060028204905060018216806114d457607f821691505b6020821081036114e7576114e661148d565b5b50919050565b7f4e487b7100000000000000000000000000000000000000000000000000000000600052601160045260246000fd5b600061152782611269565b915061153283611269565b925082820190508082111561154a576115496114ed565b5b92915050565b7f45524332303a2064656372656173656420616c6c6f77616e63652062656c6f7760008201527f207a65726f000000000000000000000000000000000000000000000000000000602082015250565b60006115ac60258361115f565b91506115b782611550565b604082019050919050565b600060208201905081810360008301526115db8161159f565b9050919050565b7f4f776e61626c653a206e6577206f776e657220697320746865207a65726f206160008201527f6464726573730000000000000000000000000000000000000000000000000000602082015250565b600061163e60268361115f565b9150611649826115e2565b604082019050919050565b6000602082019050818103600083015261166d81611631565b9050919050565b7f45524332303a20617070726f76652066726f6d20746865207a65726f2061646460008201527f7265737300000000000000000000000000000000000000000000000000000000602082015250565b60006116d060248361115f565b91506116db82611674565b604082019050919050565b600060208201905081810360008301526116ff816116c3565b9050919050565b7f45524332303a20617070726f766520746f20746865207a65726f20616464726560008201527f7373000000000000000000000000000000000000000000000000000000000000602082015250565b600061176260228361115f565b915061176d82611706565b604082019050919050565b6000602082019050818103600083015261179181611755565b9050919050565b7f45524332303a20696e73756666696369656e7420616c6c6f77616e6365000000600082015250565b60006117ce601d8361115f565b91506117d982611798565b602082019050919050565b600060208201905081810360008301526117fd816117c1565b9050919050565b7f45524332303a207472616e736665722066726f6d20746865207a65726f20616460008201527f6472657373000000000000000000000000000000000000000000000000000000602082015250565b600061186060258361115f565b915061186b82611804565b604082019050919050565b6000602082019050818103600083015261188f81611853565b9050919050565b7f45524332303a207472616e7366657220746f20746865207a65726f206164647260008201527f6573730000000000000000000000000000000000000000000000000000000000602082015250565b60006118f260238361115f565b91506118fd82611896565b604082019050919050565b60006020820190508181036000830152611921816118e5565b9050919050565b7f45524332303a207472616e7366657220616d6f756e742065786365656473206260008201527f616c616e63650000000000000000000000000000000000000000000000000000602082015250565b600061198460268361115f565b915061198f82611928565b604082019050919050565b600060208201905081810360008301526119b381611977565b9050919050565b7f4f776e61626c653a2063616c6c6572206973206e6f7420746865206f776e6572600082015250565b60006119f060208361115f565b91506119fb826119ba565b602082019050919050565b60006020820190508181036000830152611a1f816119e3565b9050919050565b7f45524332303a206275726e2066726f6d20746865207a65726f2061646472657360008201527f7300000000000000000000000000000000000000000000000000000000000000602082015250565b6000611a8260218361115f565b9150611a8d82611a26565b604082019050919050565b60006020820190508181036000830152611ab181611a75565b9050919050565b7f45524332303a206275726e20616d6f756e7420657863656564732062616c616e60008201527f6365000000000000000000000000000000000000000000000000000000000000602082015250565b6000611b1460228361115f565b9150611b1f82611ab8565b604082019050919050565b60006020820190508181036000830152611b4381611b07565b9050919050565b7f5061757361626c653a206e6f7420706175736564000000000000000000000000600082015250565b6000611b8060148361115f565b9150611b8b82611b4a565b602082019050919050565b60006020820190508181036000830152611baf81611b73565b9050919050565b7f5061757361626c653a2070617573656400000000000000000000000000000000600082015250565b6000611bec60108361115f565b9150611bf782611bb6565b602082019050919050565b60006020820190508181036000830152611c1b81611bdf565b905091905056fea26469706673582212209bf97a69627a3388bc54f72ca0b146d1f521d763bbe1693e936e06d31b1a605864736f6c63430008120033",
  "linkReferences": {},
  "deployedLinkReferences": {}
}